{
  "_format": "hh-sol-artifact-1",
  "contractName": "RiddleQuestFactory",
  "sourceName": "contracts/RiddleQuest.sol",
  "abi": [
    {
      "inputs": [
        {
          "internalType": "contract IVerifier",
          "name": "_verifier",
          "type": "address"
        }
      ],
      "stateMutability": "payable",
      "type": "constructor"
    },
    {
      "anonymous": false,
      "inputs": [
        {
          "indexed": false,
          "internalType": "uint256",
          "name": "questId",
          "type": "uint256"
        },
        {
          "indexed": false,
          "internalType": "address",
          "name": "winner",
          "type": "address"
        }
      ],
      "name": "BountyClaimed",
      "type": "event"
    },
    {
      "anonymous": false,
      "inputs": [
        {
          "indexed": false,
          "internalType": "uint256",
          "name": "questId",
          "type": "uint256"
        },
        {
          "indexed": false,
          "internalType": "uint256",
          "name": "bounty",
          "type": "uint256"
        },
        {
          "indexed": false,
          "internalType": "bytes32",
          "name": "solutionHash",
          "type": "bytes32"
        }
      ],
      "name": "QuestCreated",
      "type": "event"
    },
    {
      "anonymous": false,
      "inputs": [
        {
          "indexed": false,
          "internalType": "uint256",
          "name": "questId",
          "type": "uint256"
        }
      ],
      "name": "QuestSolved",
      "type": "event"
    },
    {
      "inputs": [
        {
          "internalType": "uint256",
          "name": "",
          "type": "uint256"
        }
      ],
      "name": "bounties",
      "outputs": [
        {
          "internalType": "uint256",
          "name": "",
          "type": "uint256"
        }
      ],
      "stateMutability": "view",
      "type": "function"
    },
    {
      "inputs": [
        {
          "internalType": "string",
          "name": "_riddle",
          "type": "string"
        },
        {
          "internalType": "bytes32",
          "name": "_solutionHash",
          "type": "bytes32"
        }
      ],
      "name": "createRiddle",
      "outputs": [],
      "stateMutability": "payable",
      "type": "function"
    },
    {
      "inputs": [],
      "name": "getMetadata",
      "outputs": [
        {
          "internalType": "address",
          "name": "_verifier",
          "type": "address"
        },
        {
          "internalType": "uint256",
          "name": "_questId",
          "type": "uint256"
        },
        {
          "internalType": "uint256",
          "name": "_lowerOpenQuestId",
          "type": "uint256"
        }
      ],
      "stateMutability": "view",
      "type": "function"
    },
    {
      "inputs": [
        {
          "internalType": "uint256",
          "name": "_questId",
          "type": "uint256"
        }
      ],
      "name": "getQuestMetadata",
      "outputs": [
        {
          "internalType": "bytes32",
          "name": "_solutionHash",
          "type": "bytes32"
        },
        {
          "internalType": "uint256",
          "name": "_bounty",
          "type": "uint256"
        },
        {
          "internalType": "string",
          "name": "_riddle",
          "type": "string"
        },
        {
          "internalType": "bool",
          "name": "_solved",
          "type": "bool"
        }
      ],
      "stateMutability": "view",
      "type": "function"
    },
    {
      "inputs": [],
      "name": "lowerOpenQuestId",
      "outputs": [
        {
          "internalType": "uint256",
          "name": "",
          "type": "uint256"
        }
      ],
      "stateMutability": "view",
      "type": "function"
    },
    {
      "inputs": [],
      "name": "questId",
      "outputs": [
        {
          "internalType": "uint256",
          "name": "",
          "type": "uint256"
        }
      ],
      "stateMutability": "view",
      "type": "function"
    },
    {
      "inputs": [
        {
          "internalType": "uint256",
          "name": "",
          "type": "uint256"
        }
      ],
      "name": "riddle",
      "outputs": [
        {
          "internalType": "string",
          "name": "",
          "type": "string"
        }
      ],
      "stateMutability": "view",
      "type": "function"
    },
    {
      "inputs": [
        {
          "internalType": "uint256",
          "name": "",
          "type": "uint256"
        }
      ],
      "name": "solutionHash",
      "outputs": [
        {
          "internalType": "bytes32",
          "name": "",
          "type": "bytes32"
        }
      ],
      "stateMutability": "view",
      "type": "function"
    },
    {
      "inputs": [
        {
          "internalType": "uint256",
          "name": "",
          "type": "uint256"
        }
      ],
      "name": "solved",
      "outputs": [
        {
          "internalType": "bool",
          "name": "",
          "type": "bool"
        }
      ],
      "stateMutability": "view",
      "type": "function"
    },
    {
      "inputs": [
        {
          "internalType": "bytes",
          "name": "_proof",
          "type": "bytes"
        },
        {
          "internalType": "uint256",
          "name": "_questId",
          "type": "uint256"
        }
      ],
      "name": "submitGuess",
      "outputs": [],
      "stateMutability": "nonpayable",
      "type": "function"
    },
    {
      "inputs": [],
      "name": "verifier",
      "outputs": [
        {
          "internalType": "contract IVerifier",
          "name": "",
          "type": "address"
        }
      ],
      "stateMutability": "view",
      "type": "function"
    }
  ],
  "bytecode": "0x60a0604052604051610c13380380610c138339810160408190526020916039565b5f60048190556005556001600160a01b03166080526064565b5f602082840312156048575f5ffd5b81516001600160a01b0381168114605d575f5ffd5b9392505050565b608051610b8a6100895f395f818160be0152818161018a01526104130152610b8a5ff3fe6080604052600436106100a9575f3560e01c80639a90ba4611610071578063b77334b21161004c578063b77334b214610249578063dc2f874414610278578063f2ffc309146102a3575f5ffd5b80639a90ba46146101d15780639e2ed9ad146101fd578063a17e041b14610228575f5ffd5b80632b7ac3f3146100ad5780632c5868b5146100fd57806334a834ce1461013b57806344a22c361461015e5780637a5b4f5914610173575b5f5ffd5b3480156100b8575f5ffd5b506100e07f000000000000000000000000000000000000000000000000000000000000000081565b6040516001600160a01b0390911681526020015b60405180910390f35b348015610108575f5ffd5b5061012b61011736600461077c565b60036020525f908152604090205460ff1681565b60405190151581526020016100f4565b348015610146575f5ffd5b5061015060055481565b6040519081526020016100f4565b348015610169575f5ffd5b5061015060045481565b34801561017e575f5ffd5b506101ac6004546005547f000000000000000000000000000000000000000000000000000000000000000092565b604080516001600160a01b0390941684526020840192909252908201526060016100f4565b3480156101dc575f5ffd5b506101f06101eb36600461077c565b6102b6565b6040516100f491906107c1565b348015610208575f5ffd5b5061015061021736600461077c565b60016020525f908152604090205481565b348015610233575f5ffd5b506102476102423660046107da565b61034d565b005b348015610254575f5ffd5b5061026861026336600461077c565b610566565b6040516100f4949392919061084c565b348015610283575f5ffd5b5061015061029236600461077c565b5f6020819052908152604090205481565b6102476102b1366004610891565b610638565b60026020525f9081526040902080546102ce90610946565b80601f01602080910402602001604051908101604052809291908181526020018280546102fa90610946565b80156103455780601f1061031c57610100808354040283529160200191610345565b820191905f5260205f20905b81548152906001019060200180831161032857829003601f168201915b505050505081565b5f8181526003602052604090205460ff16156103b05760405162461bcd60e51b815260206004820152601460248201527f517565737420616c726561647920736f6c76656400000000000000000000000060448201526064015b60405180910390fd5b6040805160018082528183019092525f91602080830190803683375050505f838152600160205260408120548251929350918391906103f1576103f161097e565b6020908102919091010152604051633a94343960e21b81526001600160a01b037f0000000000000000000000000000000000000000000000000000000000000000169063ea50d0e49061044c90879087908690600401610992565b602060405180830381865afa925050508015610485575060408051601f3d908101601f1916820190925261048291810190610a0a565b60015b6104d15760405162461bcd60e51b815260206004820152601960248201527f50726f6f6620766572696669636174696f6e206661696c65640000000000000060448201526064016103a7565b505f8281526003602052604090819020805460ff19166001179055517fdf0a51f149bda50bfee1bc536ef1f869302b89ae91d38e0296cfe0fe95dcf77e9061051c9084815260200190565b60405180910390a16005548203610560575b6005545f9081526003602052604090205460ff16156105605760058054905f61055683610a29565b919050555061052e565b50505050565b5f81815260016020908152604080832054838352818420546002845282852060039094529184205483548594606094869493909260ff9091169082906105ab90610946565b80601f01602080910402602001604051908101604052809291908181526020018280546105d790610946565b80156106225780601f106105f957610100808354040283529160200191610622565b820191905f5260205f20905b81548152906001019060200180831161060557829003601f168201915b5050505050915093509350935093509193509193565b5f34116106875760405162461bcd60e51b815260206004820152600f60248201527f426f756e7479207265717569726564000000000000000000000000000000000060448201526064016103a7565b806106d45760405162461bcd60e51b815260206004820152601660248201527f536f6c7574696f6e20686173682072657175697265640000000000000000000060448201526064016103a7565b60048054905f6106e383610a29565b9091555050600480545f9081526001602090815260408083208590559254825260029052206107128382610a99565b506004545f9081526020819052604081203490556005549003610736576004546005555b6004546040805191825234602083015281018290527f4bd3612c87b5c4c439463768f70ccc8a6a26983fdd648246f7c3f7efd07025879060600160405180910390a15050565b5f6020828403121561078c575f5ffd5b5035919050565b5f81518084528060208401602086015e5f602082860101526020601f19601f83011685010191505092915050565b602081525f6107d36020830184610793565b9392505050565b5f5f5f604084860312156107ec575f5ffd5b833567ffffffffffffffff811115610802575f5ffd5b8401601f81018613610812575f5ffd5b803567ffffffffffffffff811115610828575f5ffd5b866020828401011115610839575f5ffd5b6020918201979096509401359392505050565b848152836020820152608060408201525f61086a6080830185610793565b9050821515606083015295945050505050565b634e487b7160e01b5f52604160045260245ffd5b5f5f604083850312156108a2575f5ffd5b823567ffffffffffffffff8111156108b8575f5ffd5b8301601f810185136108c8575f5ffd5b803567ffffffffffffffff8111156108e2576108e261087d565b604051601f8201601f19908116603f0116810167ffffffffffffffff811182821017156109115761091161087d565b604052818152828201602001871015610928575f5ffd5b816020840160208301375f6020928201830152969401359450505050565b600181811c9082168061095a57607f821691505b60208210810361097857634e487b7160e01b5f52602260045260245ffd5b50919050565b634e487b7160e01b5f52603260045260245ffd5b60408152826040820152828460608301375f606084830101525f601f19601f85011682016060810160608483030160208501528085518083526080840191506020870193505f92505b808310156109fe57835182526020820191506020840193506001830192506109db565b50979650505050505050565b5f60208284031215610a1a575f5ffd5b815180151581146107d3575f5ffd5b5f60018201610a4657634e487b7160e01b5f52601160045260245ffd5b5060010190565b601f821115610a9457805f5260205f20601f840160051c81016020851015610a725750805b601f840160051c820191505b81811015610a91575f8155600101610a7e565b50505b505050565b815167ffffffffffffffff811115610ab357610ab361087d565b610ac781610ac18454610946565b84610a4d565b6020601f821160018114610af9575f8315610ae25750848201515b5f19600385901b1c1916600184901b178455610a91565b5f84815260208120601f198516915b82811015610b285787850151825560209485019460019092019101610b08565b5084821015610b4557868401515f19600387901b60f8161c191681555b50505050600190811b0190555056fea264697066735822122004cfb9ea5e1a2ebeb4b78731113a11da310e1df588830ad59cb669ca1615489d64736f6c634300081c0033",
  "linkReferences": {},
  "deployedLinkReferences": {}
}