{
  "_format": "hh-sol-artifact-1",
  "contractName": "RiddleQuestFactory",
  "sourceName": "contracts/RiddleQuest.sol",
  "abi": [
    {
      "inputs": [
        {
          "internalType": "contract IVerifier",
          "name": "_verifier",
          "type": "address"
        }
      ],
      "stateMutability": "payable",
      "type": "constructor"
    },
    {
      "anonymous": false,
      "inputs": [
        {
          "indexed": false,
          "internalType": "uint256",
          "name": "questId",
          "type": "uint256"
        },
        {
          "indexed": false,
          "internalType": "address",
          "name": "winner",
          "type": "address"
        }
      ],
      "name": "BountyClaimed",
      "type": "event"
    },
    {
      "anonymous": false,
      "inputs": [
        {
          "indexed": false,
          "internalType": "uint256",
          "name": "questId",
          "type": "uint256"
        },
        {
          "indexed": false,
          "internalType": "uint256",
          "name": "bounty",
          "type": "uint256"
        },
        {
          "indexed": false,
          "internalType": "bytes32",
          "name": "solutionHash",
          "type": "bytes32"
        }
      ],
      "name": "QuestCreated",
      "type": "event"
    },
    {
      "anonymous": false,
      "inputs": [
        {
          "indexed": false,
          "internalType": "uint256",
          "name": "questId",
          "type": "uint256"
        }
      ],
      "name": "QuestSolved",
      "type": "event"
    },
    {
      "inputs": [
        {
          "internalType": "uint256",
          "name": "",
          "type": "uint256"
        }
      ],
      "name": "bounties",
      "outputs": [
        {
          "internalType": "uint256",
          "name": "",
          "type": "uint256"
        }
      ],
      "stateMutability": "view",
      "type": "function"
    },
    {
      "inputs": [
        {
          "internalType": "string",
          "name": "_riddle",
          "type": "string"
        },
        {
          "internalType": "bytes32",
          "name": "_solutionHash",
          "type": "bytes32"
        }
      ],
      "name": "createRiddle",
      "outputs": [],
      "stateMutability": "payable",
      "type": "function"
    },
    {
      "inputs": [],
      "name": "getMetadata",
      "outputs": [
        {
          "internalType": "address",
          "name": "_verifier",
          "type": "address"
        },
        {
          "internalType": "uint256",
          "name": "_questId",
          "type": "uint256"
        },
        {
          "internalType": "uint256",
          "name": "_lowerOpenQuestId",
          "type": "uint256"
        }
      ],
      "stateMutability": "view",
      "type": "function"
    },
    {
      "inputs": [
        {
          "internalType": "uint256",
          "name": "_questId",
          "type": "uint256"
        }
      ],
      "name": "getQuestMetadata",
      "outputs": [
        {
          "internalType": "bytes32",
          "name": "_solutionHash",
          "type": "bytes32"
        },
        {
          "internalType": "uint256",
          "name": "_bounty",
          "type": "uint256"
        },
        {
          "internalType": "string",
          "name": "_riddle",
          "type": "string"
        },
        {
          "internalType": "bool",
          "name": "_solved",
          "type": "bool"
        }
      ],
      "stateMutability": "view",
      "type": "function"
    },
    {
      "inputs": [],
      "name": "lowerOpenQuestId",
      "outputs": [
        {
          "internalType": "uint256",
          "name": "",
          "type": "uint256"
        }
      ],
      "stateMutability": "view",
      "type": "function"
    },
    {
      "inputs": [],
      "name": "questId",
      "outputs": [
        {
          "internalType": "uint256",
          "name": "",
          "type": "uint256"
        }
      ],
      "stateMutability": "view",
      "type": "function"
    },
    {
      "inputs": [
        {
          "internalType": "uint256",
          "name": "",
          "type": "uint256"
        }
      ],
      "name": "riddle",
      "outputs": [
        {
          "internalType": "string",
          "name": "",
          "type": "string"
        }
      ],
      "stateMutability": "view",
      "type": "function"
    },
    {
      "inputs": [
        {
          "internalType": "uint256",
          "name": "",
          "type": "uint256"
        }
      ],
      "name": "solutionHash",
      "outputs": [
        {
          "internalType": "bytes32",
          "name": "",
          "type": "bytes32"
        }
      ],
      "stateMutability": "view",
      "type": "function"
    },
    {
      "inputs": [
        {
          "internalType": "uint256",
          "name": "",
          "type": "uint256"
        }
      ],
      "name": "solved",
      "outputs": [
        {
          "internalType": "bool",
          "name": "",
          "type": "bool"
        }
      ],
      "stateMutability": "view",
      "type": "function"
    },
    {
      "inputs": [
        {
          "internalType": "bytes",
          "name": "_proof",
          "type": "bytes"
        },
        {
          "internalType": "bytes32[]",
          "name": "_publicInputs",
          "type": "bytes32[]"
        },
        {
          "internalType": "uint256",
          "name": "_questId",
          "type": "uint256"
        }
      ],
      "name": "submitGuess",
      "outputs": [],
      "stateMutability": "nonpayable",
      "type": "function"
    },
    {
      "inputs": [],
      "name": "verifier",
      "outputs": [
        {
          "internalType": "contract IVerifier",
          "name": "",
          "type": "address"
        }
      ],
      "stateMutability": "view",
      "type": "function"
    }
  ],
  "bytecode": "0x60a0604052604051610ea4380380610ea48339810160408190526020916039565b5f60048190556005556001600160a01b03166080526064565b5f602082840312156048575f5ffd5b81516001600160a01b0381168114605d575f5ffd5b9392505050565b608051610e1b6100895f395f818160be0152818161018a015261066b0152610e1b5ff3fe6080604052600436106100a9575f3560e01c80639a90ba4611610071578063dc2f87441161004c578063dc2f874414610257578063f2ffc30914610282578063ffb4490714610297575f5ffd5b80639a90ba46146101d15780639e2ed9ad146101fd578063b77334b214610228575f5ffd5b80632b7ac3f3146100ad5780632c5868b5146100fd57806334a834ce1461013b57806344a22c361461015e5780637a5b4f5914610173575b5f5ffd5b3480156100b8575f5ffd5b506100e07f000000000000000000000000000000000000000000000000000000000000000081565b6040516001600160a01b0390911681526020015b60405180910390f35b348015610108575f5ffd5b5061012b6101173660046108ea565b60036020525f908152604090205460ff1681565b60405190151581526020016100f4565b348015610146575f5ffd5b5061015060055481565b6040519081526020016100f4565b348015610169575f5ffd5b5061015060045481565b34801561017e575f5ffd5b506101ac6004546005547f000000000000000000000000000000000000000000000000000000000000000092565b604080516001600160a01b0390941684526020840192909252908201526060016100f4565b3480156101dc575f5ffd5b506101f06101eb3660046108ea565b6102b6565b6040516100f4919061092f565b348015610208575f5ffd5b506101506102173660046108ea565b60016020525f908152604090205481565b348015610233575f5ffd5b506102476102423660046108ea565b61034d565b6040516100f49493929190610948565b348015610262575f5ffd5b506101506102713660046108ea565b5f6020819052908152604090205481565b6102956102903660046109ba565b61041f565b005b3480156102a2575f5ffd5b506102956102b1366004610a9c565b610568565b60026020525f9081526040902080546102ce90610b3b565b80601f01602080910402602001604051908101604052809291908181526020018280546102fa90610b3b565b80156103455780601f1061031c57610100808354040283529160200191610345565b820191905f5260205f20905b81548152906001019060200180831161032857829003601f168201915b505050505081565b5f81815260016020908152604080832054838352818420546002845282852060039094529184205483548594606094869493909260ff90911690829061039290610b3b565b80601f01602080910402602001604051908101604052809291908181526020018280546103be90610b3b565b80156104095780601f106103e057610100808354040283529160200191610409565b820191905f5260205f20905b8154815290600101906020018083116103ec57829003601f168201915b5050505050915093509350935093509193509193565b5f34116104735760405162461bcd60e51b815260206004820152600f60248201527f426f756e7479207265717569726564000000000000000000000000000000000060448201526064015b60405180910390fd5b806104c05760405162461bcd60e51b815260206004820152601660248201527f536f6c7574696f6e206861736820726571756972656400000000000000000000604482015260640161046a565b60048054905f6104cf83610b73565b9091555050600480545f9081526001602090815260408083208590559254825260029052206104fe8382610be0565b506004545f9081526020819052604081203490556005549003610522576004546005555b6004546040805191825234602083015281018290527f4bd3612c87b5c4c439463768f70ccc8a6a26983fdd648246f7c3f7efd07025879060600160405180910390a15050565b5f8181526003602052604090205460ff16156105c65760405162461bcd60e51b815260206004820152601460248201527f517565737420616c726561647920736f6c766564000000000000000000000000604482015260640161046a565b600182146106165760405162461bcd60e51b815260206004820152601b60248201527f496e76616c6964207075626c696320696e707574206c656e6774680000000000604482015260640161046a565b6106546040518060400160405280600f81526020017f566572696679696e672070726f6f66000000000000000000000000000000000081525061086c565b604051633a94343960e21b81526001600160a01b037f0000000000000000000000000000000000000000000000000000000000000000169063ea50d0e4906106a6908890889088908890600401610c9b565b602060405180830381865afa9250505080156106df575060408051601f3d908101601f191682019092526106dc91810190610d15565b60015b61076c576106eb610d34565b806308c379a00361076257506106ff610d4d565b8061070a5750610764565b6107486040518060400160405280601981526020017f50726f6f6620766572696669636174696f6e206661696c65640000000000000081525061086c565b8060405162461bcd60e51b815260040161046a919061092f565b505b3d5f5f3e3d5ffd5b506107ab6040518060400160405280600e81526020017f50726f6f6620766572696669656400000000000000000000000000000000000081525061086c565b5f818152600160205260408120549084908490816107cb576107cb610dd1565b9050602002013503610865575f8181526003602052604090819020805460ff19166001179055517fdf0a51f149bda50bfee1bc536ef1f869302b89ae91d38e0296cfe0fe95dcf77e906108219083815260200190565b60405180910390a16005548103610865575b6005545f9081526003602052604090205460ff16156108655760058054905f61085b83610b73565b9190505550610833565b5050505050565b6108c481604051602401610880919061092f565b60408051601f198184030181529190526020810180517bffffffffffffffffffffffffffffffffffffffffffffffffffffffff1663104c13eb60e21b1790526108c7565b50565b6108c4815f6a636f6e736f6c652e6c6f6790505f5f835160208501845afa505050565b5f602082840312156108fa575f5ffd5b5035919050565b5f81518084528060208401602086015e5f602082860101526020601f19601f83011685010191505092915050565b602081525f6109416020830184610901565b9392505050565b848152836020820152608060408201525f6109666080830185610901565b9050821515606083015295945050505050565b634e487b7160e01b5f52604160045260245ffd5b601f8201601f1916810167ffffffffffffffff811182821017156109b3576109b3610979565b6040525050565b5f5f604083850312156109cb575f5ffd5b823567ffffffffffffffff8111156109e1575f5ffd5b8301601f810185136109f1575f5ffd5b803567ffffffffffffffff811115610a0b57610a0b610979565b604051610a22601f8301601f19166020018261098d565b818152866020838501011115610a36575f5ffd5b816020840160208301375f6020928201830152969401359450505050565b5f5f83601f840112610a64575f5ffd5b50813567ffffffffffffffff811115610a7b575f5ffd5b6020830191508360208260051b8501011115610a95575f5ffd5b9250929050565b5f5f5f5f5f60608688031215610ab0575f5ffd5b853567ffffffffffffffff811115610ac6575f5ffd5b8601601f81018813610ad6575f5ffd5b803567ffffffffffffffff811115610aec575f5ffd5b886020828401011115610afd575f5ffd5b60209182019650945086013567ffffffffffffffff811115610b1d575f5ffd5b610b2988828901610a54565b96999598509660400135949350505050565b600181811c90821680610b4f57607f821691505b602082108103610b6d57634e487b7160e01b5f52602260045260245ffd5b50919050565b5f60018201610b9057634e487b7160e01b5f52601160045260245ffd5b5060010190565b601f821115610bdb57805f5260205f20601f840160051c81016020851015610bbc5750805b601f840160051c820191505b81811015610865575f8155600101610bc8565b505050565b815167ffffffffffffffff811115610bfa57610bfa610979565b610c0e81610c088454610b3b565b84610b97565b6020601f821160018114610c40575f8315610c295750848201515b5f19600385901b1c1916600184901b178455610865565b5f84815260208120601f198516915b82811015610c6f5787850151825560209485019460019092019101610c4f565b5084821015610c8c57868401515f19600387901b60f8161c191681555b50505050600190811b01905550565b60408152836040820152838560608301375f606085830101525f601f19601f860116820160608382030160208401528360608201527f07ffffffffffffffffffffffffffffffffffffffffffffffffffffffffffffff841115610cfc575f5ffd5b8360051b80866080840137016080019695505050505050565b5f60208284031215610d25575f5ffd5b81518015158114610941575f5ffd5b5f60033d1115610d4a5760045f5f3e505f5160e01c5b90565b5f60443d1015610d5a5790565b6040513d600319016004823e80513d602482011167ffffffffffffffff82111715610d8457505090565b808201805167ffffffffffffffff811115610da0575050505090565b3d8401600319018282016020011115610dba575050505090565b610dc96020828501018561098d565b509392505050565b634e487b7160e01b5f52603260045260245ffdfea26469706673582212209061ea268b72b6983ce1c8f3d3c97851b7b7a5f888ea74b6d010253d0649172164736f6c634300081c0033",
  "linkReferences": {},
  "deployedLinkReferences": {}
}