{
  "_format": "hh-sol-artifact-1",
  "contractName": "VotingQuestFactory",
  "sourceName": "contracts/Quest.sol",
  "abi": [
    {
      "inputs": [
        {
          "internalType": "address",
          "name": "_verifier",
          "type": "address"
        }
      ],
      "stateMutability": "payable",
      "type": "constructor"
    },
    {
      "anonymous": false,
      "inputs": [
        {
          "indexed": false,
          "internalType": "uint256",
          "name": "questId",
          "type": "uint256"
        },
        {
          "indexed": false,
          "internalType": "address",
          "name": "winner",
          "type": "address"
        }
      ],
      "name": "BountyClaimed",
      "type": "event"
    },
    {
      "anonymous": false,
      "inputs": [
        {
          "indexed": false,
          "internalType": "uint256",
          "name": "questId",
          "type": "uint256"
        },
        {
          "indexed": false,
          "internalType": "uint256",
          "name": "voteCandidate",
          "type": "uint256"
        },
        {
          "indexed": false,
          "internalType": "bytes32",
          "name": "voteSecret",
          "type": "bytes32"
        }
      ],
      "name": "ProofSubmitted",
      "type": "event"
    },
    {
      "anonymous": false,
      "inputs": [
        {
          "indexed": false,
          "internalType": "uint256",
          "name": "questId",
          "type": "uint256"
        },
        {
          "indexed": false,
          "internalType": "uint256",
          "name": "bounty",
          "type": "uint256"
        },
        {
          "indexed": false,
          "internalType": "uint256",
          "name": "questObjective",
          "type": "uint256"
        }
      ],
      "name": "QuestCreated",
      "type": "event"
    },
    {
      "anonymous": false,
      "inputs": [
        {
          "indexed": false,
          "internalType": "uint256",
          "name": "questId",
          "type": "uint256"
        },
        {
          "indexed": false,
          "internalType": "bytes32",
          "name": "winnerSecret",
          "type": "bytes32"
        }
      ],
      "name": "QuestSolved",
      "type": "event"
    },
    {
      "inputs": [
        {
          "internalType": "uint256",
          "name": "",
          "type": "uint256"
        }
      ],
      "name": "bounties",
      "outputs": [
        {
          "internalType": "uint256",
          "name": "",
          "type": "uint256"
        }
      ],
      "stateMutability": "view",
      "type": "function"
    },
    {
      "inputs": [
        {
          "internalType": "bytes",
          "name": "_secret",
          "type": "bytes"
        },
        {
          "internalType": "uint256",
          "name": "_questId",
          "type": "uint256"
        }
      ],
      "name": "claimBounty",
      "outputs": [],
      "stateMutability": "nonpayable",
      "type": "function"
    },
    {
      "inputs": [
        {
          "internalType": "uint256",
          "name": "_bounty",
          "type": "uint256"
        },
        {
          "internalType": "uint256",
          "name": "_questObjective",
          "type": "uint256"
        }
      ],
      "name": "createQuest",
      "outputs": [],
      "stateMutability": "nonpayable",
      "type": "function"
    },
    {
      "inputs": [],
      "name": "getMetadata",
      "outputs": [
        {
          "internalType": "address",
          "name": "_verifier",
          "type": "address"
        },
        {
          "internalType": "uint256",
          "name": "_questId",
          "type": "uint256"
        },
        {
          "internalType": "uint256",
          "name": "_lowerOpenQuestId",
          "type": "uint256"
        }
      ],
      "stateMutability": "view",
      "type": "function"
    },
    {
      "inputs": [
        {
          "internalType": "uint256",
          "name": "_questId",
          "type": "uint256"
        }
      ],
      "name": "getQuestMetadata",
      "outputs": [
        {
          "internalType": "bytes32",
          "name": "_winnerSecret",
          "type": "bytes32"
        },
        {
          "internalType": "uint256",
          "name": "_bounty",
          "type": "uint256"
        },
        {
          "internalType": "uint256",
          "name": "_questObjective",
          "type": "uint256"
        },
        {
          "internalType": "bool",
          "name": "_solved",
          "type": "bool"
        }
      ],
      "stateMutability": "view",
      "type": "function"
    },
    {
      "inputs": [],
      "name": "lowerOpenQuestId",
      "outputs": [
        {
          "internalType": "uint256",
          "name": "",
          "type": "uint256"
        }
      ],
      "stateMutability": "view",
      "type": "function"
    },
    {
      "inputs": [],
      "name": "questId",
      "outputs": [
        {
          "internalType": "uint256",
          "name": "",
          "type": "uint256"
        }
      ],
      "stateMutability": "view",
      "type": "function"
    },
    {
      "inputs": [
        {
          "internalType": "uint256",
          "name": "",
          "type": "uint256"
        }
      ],
      "name": "questObjective",
      "outputs": [
        {
          "internalType": "uint256",
          "name": "",
          "type": "uint256"
        }
      ],
      "stateMutability": "view",
      "type": "function"
    },
    {
      "inputs": [
        {
          "internalType": "uint256",
          "name": "",
          "type": "uint256"
        }
      ],
      "name": "solved",
      "outputs": [
        {
          "internalType": "bool",
          "name": "",
          "type": "bool"
        }
      ],
      "stateMutability": "view",
      "type": "function"
    },
    {
      "inputs": [
        {
          "internalType": "bytes",
          "name": "_proof",
          "type": "bytes"
        },
        {
          "internalType": "bytes32[]",
          "name": "_publicInputs",
          "type": "bytes32[]"
        },
        {
          "internalType": "uint256",
          "name": "_questId",
          "type": "uint256"
        },
        {
          "internalType": "uint256",
          "name": "_voteCandidate",
          "type": "uint256"
        },
        {
          "internalType": "bytes32",
          "name": "_voteSecret",
          "type": "bytes32"
        }
      ],
      "name": "submitVote",
      "outputs": [],
      "stateMutability": "nonpayable",
      "type": "function"
    },
    {
      "inputs": [],
      "name": "verifier",
      "outputs": [
        {
          "internalType": "address",
          "name": "",
          "type": "address"
        }
      ],
      "stateMutability": "view",
      "type": "function"
    },
    {
      "inputs": [
        {
          "internalType": "uint256",
          "name": "",
          "type": "uint256"
        },
        {
          "internalType": "uint256",
          "name": "",
          "type": "uint256"
        }
      ],
      "name": "voteCandidates",
      "outputs": [
        {
          "internalType": "uint256",
          "name": "",
          "type": "uint256"
        }
      ],
      "stateMutability": "view",
      "type": "function"
    },
    {
      "inputs": [
        {
          "internalType": "uint256",
          "name": "",
          "type": "uint256"
        },
        {
          "internalType": "bytes32",
          "name": "",
          "type": "bytes32"
        }
      ],
      "name": "voteSecrets",
      "outputs": [
        {
          "internalType": "uint256",
          "name": "",
          "type": "uint256"
        }
      ],
      "stateMutability": "view",
      "type": "function"
    },
    {
      "inputs": [
        {
          "internalType": "uint256",
          "name": "",
          "type": "uint256"
        }
      ],
      "name": "winnerSecret",
      "outputs": [
        {
          "internalType": "bytes32",
          "name": "",
          "type": "bytes32"
        }
      ],
      "stateMutability": "view",
      "type": "function"
    }
  ],
  "bytecode": "0x60a0604052604051610dd5380380610dd58339810160408190526020916039565b5f60068190556007556001600160a01b03166080526064565b5f602082840312156048575f5ffd5b81516001600160a01b0381168114605d575f5ffd5b9392505050565b608051610d4b61008a5f395f8181610103015281816101e801526106a70152610d4b5ff3fe608060405234801561000f575f5ffd5b50600436106100e5575f3560e01c80637a5b4f5911610088578063b77334b211610063578063b77334b214610261578063da4bb9e6146102c6578063dc2f8744146102d9578063f01eb4e9146102f8575f5ffd5b80637a5b4f59146101dd578063850bc0dd1461022f578063b459b4c114610242575f5ffd5b80632c657d34116100c35780632c657d341461017457806334a834ce146101ac57806344a22c36146101b557806378cbfc79146101be575f5ffd5b80630cfd7cb1146100e95780632b7ac3f3146100fe5780632c5868b514610142575b5f5ffd5b6100fc6100f73660046109be565b61031f565b005b6101257f000000000000000000000000000000000000000000000000000000000000000081565b6040516001600160a01b0390911681526020015b60405180910390f35b6101646101503660046109de565b60056020525f908152604090205460ff1681565b6040519015158152602001610139565b61019e6101823660046109be565b600160209081525f928352604080842090915290825290205481565b604051908152602001610139565b61019e60075481565b61019e60065481565b61019e6101cc3660046109de565b60046020525f908152604090205481565b61020a6006546007547f000000000000000000000000000000000000000000000000000000000000000092565b604080516001600160a01b039094168452602084019290925290820152606001610139565b6100fc61023d366004610a3a565b610452565b61019e6102503660046109de565b60026020525f908152604090205481565b6102a461026f3660046109de565b5f9081526002602090815260408083205460038352818420546004845282852054600590945291909320549293909260ff1690565b6040805194855260208501939093529183015215156060820152608001610139565b6100fc6102d4366004610a82565b6105a4565b61019e6102e73660046109de565b60036020525f908152604090205481565b61019e6103063660046109be565b5f60208181529281526040808220909352908152205481565b5f82116103735760405162461bcd60e51b815260206004820152600f60248201527f426f756e7479207265717569726564000000000000000000000000000000000060448201526064015b60405180910390fd5b5f81116103c25760405162461bcd60e51b815260206004820152601860248201527f5175657374206f626a6563746976652072657175697265640000000000000000604482015260640161036a565b60068054905f6103d183610b37565b9091555050600680545f9081526003602090815260408083208690559254825260049052908120829055600754900361040b576006546007555b600654604080519182526020820184905281018290527f292695de237dc24c669ae795d1a0ca0a36499b22d485a3730e866a1ba36ad1b19060600160405180910390a15050565b5f8181526005602052604090205460ff166104af5760405162461bcd60e51b815260206004820152601060248201527f5175657374206e6f7420736f6c76656400000000000000000000000000000000604482015260640161036a565b82826040516104bf929190610b5b565b604051809103902060025f8381526020019081526020015f2054146105265760405162461bcd60e51b815260206004820152600e60248201527f496e76616c696420736563726574000000000000000000000000000000000000604482015260640161036a565b5f8181526003602052604080822080549083905590519091339183156108fc0291849190818181858888f19350505050158015610565573d5f5f3e3d5ffd5b50604080518381523360208201527fbf59c0d059a57ebf273b4b1643599fc4b48cf5effdd82113a740ed64d262ec93910160405180910390a150505050565b5f8381526005602052604090205460ff16156106025760405162461bcd60e51b815260206004820152601460248201527f517565737420616c726561647920736f6c766564000000000000000000000000604482015260640161036a565b601284146106525760405162461bcd60e51b815260206004820152601b60248201527f496e76616c6964207075626c696320696e707574206c656e6774680000000000604482015260640161036a565b6106906040518060400160405280600f81526020017f566572696679696e672070726f6f660000000000000000000000000000000000815250610940565b604051633a94343960e21b81526001600160a01b037f0000000000000000000000000000000000000000000000000000000000000000169063ea50d0e4906106e2908a908a908a908a90600401610b6a565b602060405180830381865afa92505050801561071b575060408051601f3d908101601f1916820190925261071891810190610be4565b60015b6107a857610727610c0a565b806308c379a00361079e575061073b610c5c565b8061074657506107a0565b6107846040518060400160405280601981526020017f50726f6f6620766572696669636174696f6e206661696c656400000000000000815250610940565b8060405162461bcd60e51b815260040161036a9190610ce0565b505b3d5f5f3e3d5ffd5b506107e76040518060400160405280600e81526020017f50726f6f66207665726966696564000000000000000000000000000000000000815250610940565b5f83815260208181526040808320858452909152812080549161080983610b37565b90915550505f838152600160209081526040808320848452909152812080549161083283610b37565b909155505060408051848152602081018490529081018290527f9b5cdf2a1d86062250bc359360ca976cc957376d56fd42bbea88d776805c9a519060600160405180910390a15f83815260046020908152604080832054600183528184208585529092529091205410610937575f838152600560209081526040808320805460ff19166001179055600282529182902083905581518581529081018390527fbe329237154f9baf9a0511caeb9dce74995db5d02a409ce32577b1bbdb46792d910160405180910390a16007548303610937575b6007545f9081526005602052604090205460ff16156109375760078054905f61092d83610b37565b9190505550610905565b50505050505050565b610998816040516024016109549190610ce0565b60408051601f198184030181529190526020810180517bffffffffffffffffffffffffffffffffffffffffffffffffffffffff1663104c13eb60e21b17905261099b565b50565b610998815f6a636f6e736f6c652e6c6f6790505f5f835160208501845afa505050565b5f5f604083850312156109cf575f5ffd5b50508035926020909101359150565b5f602082840312156109ee575f5ffd5b5035919050565b5f5f83601f840112610a05575f5ffd5b50813567ffffffffffffffff811115610a1c575f5ffd5b602083019150836020828501011115610a33575f5ffd5b9250929050565b5f5f5f60408486031215610a4c575f5ffd5b833567ffffffffffffffff811115610a62575f5ffd5b610a6e868287016109f5565b909790965060209590950135949350505050565b5f5f5f5f5f5f5f60a0888a031215610a98575f5ffd5b873567ffffffffffffffff811115610aae575f5ffd5b610aba8a828b016109f5565b909850965050602088013567ffffffffffffffff811115610ad9575f5ffd5b8801601f81018a13610ae9575f5ffd5b803567ffffffffffffffff811115610aff575f5ffd5b8a60208260051b8401011115610b13575f5ffd5b979a9699506020019760408101359660608201359650608090910135945092505050565b5f60018201610b5457634e487b7160e01b5f52601160045260245ffd5b5060010190565b818382375f9101908152919050565b60408152836040820152838560608301375f606085830101525f601f19601f860116820160608382030160208401528360608201527f07ffffffffffffffffffffffffffffffffffffffffffffffffffffffffffffff841115610bcb575f5ffd5b8360051b80866080840137016080019695505050505050565b5f60208284031215610bf4575f5ffd5b81518015158114610c03575f5ffd5b9392505050565b5f60033d1115610c205760045f5f3e505f5160e01c5b90565b601f8201601f1916810167ffffffffffffffff81118282101715610c5557634e487b7160e01b5f52604160045260245ffd5b6040525050565b5f60443d1015610c695790565b6040513d600319016004823e80513d602482011167ffffffffffffffff82111715610c9357505090565b808201805167ffffffffffffffff811115610caf575050505090565b3d8401600319018282016020011115610cc9575050505090565b610cd860208285010185610c23565b509392505050565b602081525f82518060208401528060208501604085015e5f604082850101526040601f19601f8301168401019150509291505056fea26469706673582212200998a05f1ecd0e2c914dfb3bb24a3e1e22b4f9081ef96226aaee62a8e66197ad64736f6c634300081c0033",
  "linkReferences": {},
  "deployedLinkReferences": {}
}