{
  "_format": "hh-sol-artifact-1",
  "contractName": "VotingQuestFactory",
  "sourceName": "contracts/Quest.sol",
  "abi": [
    {
      "inputs": [
        {
          "internalType": "address",
          "name": "_verifier",
          "type": "address"
        }
      ],
      "stateMutability": "payable",
      "type": "constructor"
    },
    {
      "anonymous": false,
      "inputs": [
        {
          "indexed": false,
          "internalType": "uint256",
          "name": "questId",
          "type": "uint256"
        },
        {
          "indexed": false,
          "internalType": "address",
          "name": "winner",
          "type": "address"
        }
      ],
      "name": "BountyClaimed",
      "type": "event"
    },
    {
      "anonymous": false,
      "inputs": [
        {
          "indexed": false,
          "internalType": "uint256",
          "name": "questId",
          "type": "uint256"
        },
        {
          "indexed": false,
          "internalType": "uint256",
          "name": "voteCandidate",
          "type": "uint256"
        },
        {
          "indexed": false,
          "internalType": "bytes32",
          "name": "voteSecret",
          "type": "bytes32"
        }
      ],
      "name": "ProofSubmitted",
      "type": "event"
    },
    {
      "anonymous": false,
      "inputs": [
        {
          "indexed": false,
          "internalType": "uint256",
          "name": "questId",
          "type": "uint256"
        },
        {
          "indexed": false,
          "internalType": "uint256",
          "name": "bounty",
          "type": "uint256"
        },
        {
          "indexed": false,
          "internalType": "uint256",
          "name": "questObjective",
          "type": "uint256"
        }
      ],
      "name": "QuestCreated",
      "type": "event"
    },
    {
      "anonymous": false,
      "inputs": [
        {
          "indexed": false,
          "internalType": "uint256",
          "name": "questId",
          "type": "uint256"
        },
        {
          "indexed": false,
          "internalType": "bytes32",
          "name": "winnerSecret",
          "type": "bytes32"
        }
      ],
      "name": "QuestSolved",
      "type": "event"
    },
    {
      "inputs": [
        {
          "internalType": "uint256",
          "name": "",
          "type": "uint256"
        }
      ],
      "name": "bounties",
      "outputs": [
        {
          "internalType": "uint256",
          "name": "",
          "type": "uint256"
        }
      ],
      "stateMutability": "view",
      "type": "function"
    },
    {
      "inputs": [
        {
          "internalType": "bytes",
          "name": "_secret",
          "type": "bytes"
        },
        {
          "internalType": "uint256",
          "name": "_questId",
          "type": "uint256"
        }
      ],
      "name": "claimBounty",
      "outputs": [],
      "stateMutability": "nonpayable",
      "type": "function"
    },
    {
      "inputs": [
        {
          "internalType": "uint256",
          "name": "_bounty",
          "type": "uint256"
        },
        {
          "internalType": "uint256",
          "name": "_questObjective",
          "type": "uint256"
        }
      ],
      "name": "createQuest",
      "outputs": [],
      "stateMutability": "nonpayable",
      "type": "function"
    },
    {
      "inputs": [],
      "name": "getMetadata",
      "outputs": [
        {
          "internalType": "address",
          "name": "_verifier",
          "type": "address"
        },
        {
          "internalType": "bytes32",
          "name": "_questId",
          "type": "bytes32"
        },
        {
          "internalType": "bool",
          "name": "_lowerOpenQuestId",
          "type": "bool"
        }
      ],
      "stateMutability": "view",
      "type": "function"
    },
    {
      "inputs": [
        {
          "internalType": "uint256",
          "name": "_questId",
          "type": "uint256"
        }
      ],
      "name": "getQuestMetadata",
      "outputs": [
        {
          "internalType": "bytes32",
          "name": "_winnerSecret",
          "type": "bytes32"
        },
        {
          "internalType": "uint256",
          "name": "_bounty",
          "type": "uint256"
        },
        {
          "internalType": "uint256",
          "name": "_questObjective",
          "type": "uint256"
        },
        {
          "internalType": "bool",
          "name": "_solved",
          "type": "bool"
        }
      ],
      "stateMutability": "view",
      "type": "function"
    },
    {
      "inputs": [],
      "name": "lowerOpenQuestId",
      "outputs": [
        {
          "internalType": "uint256",
          "name": "",
          "type": "uint256"
        }
      ],
      "stateMutability": "view",
      "type": "function"
    },
    {
      "inputs": [],
      "name": "questId",
      "outputs": [
        {
          "internalType": "uint256",
          "name": "",
          "type": "uint256"
        }
      ],
      "stateMutability": "view",
      "type": "function"
    },
    {
      "inputs": [
        {
          "internalType": "uint256",
          "name": "",
          "type": "uint256"
        }
      ],
      "name": "questObjective",
      "outputs": [
        {
          "internalType": "uint256",
          "name": "",
          "type": "uint256"
        }
      ],
      "stateMutability": "view",
      "type": "function"
    },
    {
      "inputs": [
        {
          "internalType": "uint256",
          "name": "",
          "type": "uint256"
        }
      ],
      "name": "solved",
      "outputs": [
        {
          "internalType": "bool",
          "name": "",
          "type": "bool"
        }
      ],
      "stateMutability": "view",
      "type": "function"
    },
    {
      "inputs": [
        {
          "internalType": "bytes",
          "name": "_proof",
          "type": "bytes"
        },
        {
          "internalType": "bytes32[]",
          "name": "_publicInputs",
          "type": "bytes32[]"
        },
        {
          "internalType": "uint256",
          "name": "_questId",
          "type": "uint256"
        },
        {
          "internalType": "uint256",
          "name": "_voteCandidate",
          "type": "uint256"
        },
        {
          "internalType": "bytes32",
          "name": "_voteSecret",
          "type": "bytes32"
        }
      ],
      "name": "submitVote",
      "outputs": [],
      "stateMutability": "nonpayable",
      "type": "function"
    },
    {
      "inputs": [],
      "name": "verifier",
      "outputs": [
        {
          "internalType": "address",
          "name": "",
          "type": "address"
        }
      ],
      "stateMutability": "view",
      "type": "function"
    },
    {
      "inputs": [
        {
          "internalType": "uint256",
          "name": "",
          "type": "uint256"
        },
        {
          "internalType": "uint256",
          "name": "",
          "type": "uint256"
        }
      ],
      "name": "voteCandidates",
      "outputs": [
        {
          "internalType": "uint256",
          "name": "",
          "type": "uint256"
        }
      ],
      "stateMutability": "view",
      "type": "function"
    },
    {
      "inputs": [
        {
          "internalType": "uint256",
          "name": "",
          "type": "uint256"
        },
        {
          "internalType": "bytes32",
          "name": "",
          "type": "bytes32"
        }
      ],
      "name": "voteSecrets",
      "outputs": [
        {
          "internalType": "uint256",
          "name": "",
          "type": "uint256"
        }
      ],
      "stateMutability": "view",
      "type": "function"
    },
    {
      "inputs": [
        {
          "internalType": "uint256",
          "name": "",
          "type": "uint256"
        }
      ],
      "name": "winnerSecret",
      "outputs": [
        {
          "internalType": "bytes32",
          "name": "",
          "type": "bytes32"
        }
      ],
      "stateMutability": "view",
      "type": "function"
    }
  ],
  "bytecode": "0x60a0604052604051610bc6380380610bc6833981016040819052602091603a565b600060068190556007556001600160a01b03166080526068565b600060208284031215604b57600080fd5b81516001600160a01b0381168114606157600080fd5b9392505050565b608051610b3561009160003960008181610109015281816101f401526106670152610b356000f3fe608060405234801561001057600080fd5b50600436106100ea5760003560e01c80637a5b4f591161008c578063b77334b211610066578063b77334b214610261578063da4bb9e6146102c7578063dc2f8744146102da578063f01eb4e9146102fa57600080fd5b80637a5b4f59146101e6578063850bc0dd1461022e578063b459b4c11461024157600080fd5b80632c657d34116100c85780632c657d341461017b57806334a834ce146101b457806344a22c36146101bd57806378cbfc79146101c657600080fd5b80630cfd7cb1146100ef5780632b7ac3f3146101045780632c5868b514610148575b600080fd5b6101026100fd366004610893565b610322565b005b61012b7f000000000000000000000000000000000000000000000000000000000000000081565b6040516001600160a01b0390911681526020015b60405180910390f35b61016b6101563660046108b5565b60056020526000908152604090205460ff1681565b604051901515815260200161013f565b6101a6610189366004610893565b600160209081526000928352604080842090915290825290205481565b60405190815260200161013f565b6101a660075481565b6101a660065481565b6101a66101d43660046108b5565b60046020526000908152604090205481565b604080516001600160a01b037f00000000000000000000000000000000000000000000000000000000000000001681526000602082018190529181019190915260600161013f565b61010261023c366004610917565b610446565b6101a661024f3660046108b5565b60026020526000908152604090205481565b6102a561026f3660046108b5565b60009081526002602090815260408083205460038352818420546004845282852054600590945291909320549293909260ff1690565b604080519485526020850193909352918301521515606082015260800161013f565b6101026102d5366004610963565b61059e565b6101a66102e83660046108b5565b60036020526000908152604090205481565b6101a6610308366004610893565b600060208181529281526040808220909352908152205481565b600082116103775760405162461bcd60e51b815260206004820152600f60248201527f426f756e7479207265717569726564000000000000000000000000000000000060448201526064015b60405180910390fd5b600081116103c75760405162461bcd60e51b815260206004820152601860248201527f5175657374206f626a6563746976652072657175697265640000000000000000604482015260640161036e565b600680549060006103d783610a22565b90915550506006805460009081526003602090815260408083208690558354835260048252918290208490559154815190815291820184905281018290527f292695de237dc24c669ae795d1a0ca0a36499b22d485a3730e866a1ba36ad1b19060600160405180910390a15050565b60008181526005602052604090205460ff166104a45760405162461bcd60e51b815260206004820152601060248201527f5175657374206e6f7420736f6c76656400000000000000000000000000000000604482015260640161036e565b82826040516104b4929190610a49565b604051809103902060026000838152602001908152602001600020541461051d5760405162461bcd60e51b815260206004820152600e60248201527f496e76616c696420736563726574000000000000000000000000000000000000604482015260640161036e565b60008181526003602052604080822080549083905590519091339183156108fc0291849190818181858888f1935050505015801561055f573d6000803e3d6000fd5b50604080518381523360208201527fbf59c0d059a57ebf273b4b1643599fc4b48cf5effdd82113a740ed64d262ec93910160405180910390a150505050565b60008381526005602052604090205460ff16156105fd5760405162461bcd60e51b815260206004820152601460248201527f517565737420616c726561647920736f6c766564000000000000000000000000604482015260640161036e565b6012841461064d5760405162461bcd60e51b815260206004820152601b60248201527f496e76616c6964207075626c696320696e707574206c656e6774680000000000604482015260640161036e565b604051633a94343960e21b81526000906001600160a01b037f0000000000000000000000000000000000000000000000000000000000000000169063ea50d0e4906106a2908b908b908b908b90600401610a59565b602060405180830381865afa1580156106bf573d6000803e3d6000fd5b505050506040513d601f19601f820116820180604052508101906106e39190610ad6565b600085815260208181526040808320878452909152812080549293509061070983610a22565b90915550506000848152600160209081526040808320858452909152812080549161073383610a22565b909155505060408051858152602081018590529081018390527f9b5cdf2a1d86062250bc359360ca976cc957376d56fd42bbea88d776805c9a519060600160405180910390a1806107c65760405162461bcd60e51b815260206004820152601960248201527f50726f6f6620766572696669636174696f6e206661696c656400000000000000604482015260640161036e565b600084815260046020908152604080832054600183528184208685529092529091205410610889576000848152600560209081526040808320805460ff19166001179055600282529182902084905581518681529081018490527fbe329237154f9baf9a0511caeb9dce74995db5d02a409ce32577b1bbdb46792d910160405180910390a16007548403610889575b60075460009081526005602052604090205460ff1615610889576007805490600061087f83610a22565b9190505550610855565b5050505050505050565b600080604083850312156108a657600080fd5b50508035926020909101359150565b6000602082840312156108c757600080fd5b5035919050565b60008083601f8401126108e057600080fd5b50813567ffffffffffffffff8111156108f857600080fd5b60208301915083602082850101111561091057600080fd5b9250929050565b60008060006040848603121561092c57600080fd5b833567ffffffffffffffff81111561094357600080fd5b61094f868287016108ce565b909790965060209590950135949350505050565b600080600080600080600060a0888a03121561097e57600080fd5b873567ffffffffffffffff81111561099557600080fd5b6109a18a828b016108ce565b909850965050602088013567ffffffffffffffff8111156109c157600080fd5b8801601f81018a136109d257600080fd5b803567ffffffffffffffff8111156109e957600080fd5b8a60208260051b84010111156109fe57600080fd5b979a9699506020019760408101359660608201359650608090910135945092505050565b600060018201610a4257634e487b7160e01b600052601160045260246000fd5b5060010190565b8183823760009101908152919050565b60408152836040820152838560608301376000606085830101526000601f19601f860116820160608382030160208401528360608201527f07ffffffffffffffffffffffffffffffffffffffffffffffffffffffffffffff841115610abd57600080fd5b8360051b80866080840137016080019695505050505050565b600060208284031215610ae857600080fd5b81518015158114610af857600080fd5b939250505056fea2646970667358221220e5d2c2fe57c2245349fb5e56c0a58b86c329e9ada937adf80fd6c0e034b66fc764736f6c634300081c0033",
  "linkReferences": {},
  "deployedLinkReferences": {}
}