{
  "_format": "hh-sol-artifact-1",
  "contractName": "RiddleQuestFactory",
  "sourceName": "contracts/RiddleQuestFactory.sol",
  "abi": [
    {
      "inputs": [
        {
          "internalType": "contract IVerifier",
          "name": "_verifier",
          "type": "address"
        }
      ],
      "stateMutability": "payable",
      "type": "constructor"
    },
    {
      "anonymous": false,
      "inputs": [
        {
          "indexed": false,
          "internalType": "uint256",
          "name": "questId",
          "type": "uint256"
        },
        {
          "indexed": false,
          "internalType": "address",
          "name": "sender",
          "type": "address"
        },
        {
          "indexed": false,
          "internalType": "string",
          "name": "reason",
          "type": "string"
        }
      ],
      "name": "CreateFailure",
      "type": "event"
    },
    {
      "anonymous": false,
      "inputs": [
        {
          "indexed": false,
          "internalType": "uint256",
          "name": "questId",
          "type": "uint256"
        },
        {
          "indexed": false,
          "internalType": "uint256",
          "name": "bounty",
          "type": "uint256"
        },
        {
          "indexed": false,
          "internalType": "bytes32",
          "name": "solutionHash",
          "type": "bytes32"
        }
      ],
      "name": "QuestCreated",
      "type": "event"
    },
    {
      "anonymous": false,
      "inputs": [
        {
          "indexed": false,
          "internalType": "uint256",
          "name": "questId",
          "type": "uint256"
        }
      ],
      "name": "QuestSolved",
      "type": "event"
    },
    {
      "anonymous": false,
      "inputs": [
        {
          "indexed": false,
          "internalType": "uint256",
          "name": "questId",
          "type": "uint256"
        },
        {
          "indexed": false,
          "internalType": "address",
          "name": "sender",
          "type": "address"
        },
        {
          "indexed": false,
          "internalType": "string",
          "name": "reason",
          "type": "string"
        }
      ],
      "name": "SubmitFailure",
      "type": "event"
    },
    {
      "inputs": [
        {
          "internalType": "uint256",
          "name": "",
          "type": "uint256"
        }
      ],
      "name": "bounties",
      "outputs": [
        {
          "internalType": "uint256",
          "name": "",
          "type": "uint256"
        }
      ],
      "stateMutability": "view",
      "type": "function"
    },
    {
      "inputs": [
        {
          "internalType": "string",
          "name": "_riddle",
          "type": "string"
        },
        {
          "internalType": "string",
          "name": "_title",
          "type": "string"
        },
        {
          "internalType": "string",
          "name": "_excerpt",
          "type": "string"
        },
        {
          "internalType": "bytes32",
          "name": "_solutionHash",
          "type": "bytes32"
        }
      ],
      "name": "createRiddle",
      "outputs": [],
      "stateMutability": "payable",
      "type": "function"
    },
    {
      "inputs": [
        {
          "internalType": "uint256",
          "name": "",
          "type": "uint256"
        }
      ],
      "name": "excerpt",
      "outputs": [
        {
          "internalType": "string",
          "name": "",
          "type": "string"
        }
      ],
      "stateMutability": "view",
      "type": "function"
    },
    {
      "inputs": [],
      "name": "getMetadata",
      "outputs": [
        {
          "internalType": "address",
          "name": "_verifier",
          "type": "address"
        },
        {
          "internalType": "uint256",
          "name": "_questId",
          "type": "uint256"
        },
        {
          "internalType": "uint256",
          "name": "_lowerOpenQuestId",
          "type": "uint256"
        }
      ],
      "stateMutability": "view",
      "type": "function"
    },
    {
      "inputs": [
        {
          "internalType": "uint256",
          "name": "_questId",
          "type": "uint256"
        }
      ],
      "name": "getQuestMetadata",
      "outputs": [
        {
          "internalType": "bytes32",
          "name": "_solutionHash",
          "type": "bytes32"
        },
        {
          "internalType": "uint256",
          "name": "_bounty",
          "type": "uint256"
        },
        {
          "internalType": "string",
          "name": "_riddle",
          "type": "string"
        },
        {
          "internalType": "string",
          "name": "_riddleTitle",
          "type": "string"
        },
        {
          "internalType": "string",
          "name": "_riddleExcerpt",
          "type": "string"
        },
        {
          "internalType": "bool",
          "name": "_solved",
          "type": "bool"
        }
      ],
      "stateMutability": "view",
      "type": "function"
    },
    {
      "inputs": [],
      "name": "lowerOpenQuestId",
      "outputs": [
        {
          "internalType": "uint256",
          "name": "",
          "type": "uint256"
        }
      ],
      "stateMutability": "view",
      "type": "function"
    },
    {
      "inputs": [],
      "name": "questId",
      "outputs": [
        {
          "internalType": "uint256",
          "name": "",
          "type": "uint256"
        }
      ],
      "stateMutability": "view",
      "type": "function"
    },
    {
      "inputs": [
        {
          "internalType": "uint256",
          "name": "",
          "type": "uint256"
        }
      ],
      "name": "riddle",
      "outputs": [
        {
          "internalType": "string",
          "name": "",
          "type": "string"
        }
      ],
      "stateMutability": "view",
      "type": "function"
    },
    {
      "inputs": [
        {
          "internalType": "uint256",
          "name": "",
          "type": "uint256"
        }
      ],
      "name": "solutionHash",
      "outputs": [
        {
          "internalType": "bytes32",
          "name": "",
          "type": "bytes32"
        }
      ],
      "stateMutability": "view",
      "type": "function"
    },
    {
      "inputs": [
        {
          "internalType": "uint256",
          "name": "",
          "type": "uint256"
        }
      ],
      "name": "solved",
      "outputs": [
        {
          "internalType": "bool",
          "name": "",
          "type": "bool"
        }
      ],
      "stateMutability": "view",
      "type": "function"
    },
    {
      "inputs": [
        {
          "internalType": "bytes",
          "name": "_proof",
          "type": "bytes"
        },
        {
          "internalType": "uint256",
          "name": "_questId",
          "type": "uint256"
        }
      ],
      "name": "submitGuess",
      "outputs": [],
      "stateMutability": "nonpayable",
      "type": "function"
    },
    {
      "inputs": [
        {
          "internalType": "uint256",
          "name": "",
          "type": "uint256"
        }
      ],
      "name": "title",
      "outputs": [
        {
          "internalType": "string",
          "name": "",
          "type": "string"
        }
      ],
      "stateMutability": "view",
      "type": "function"
    },
    {
      "inputs": [],
      "name": "verifier",
      "outputs": [
        {
          "internalType": "contract IVerifier",
          "name": "",
          "type": "address"
        }
      ],
      "stateMutability": "view",
      "type": "function"
    }
  ],
  "bytecode": "0x60a06040526040516111f53803806111f58339810160408190526020916039565b5f60068190556007556001600160a01b03166080526064565b5f602082840312156048575f5ffd5b81516001600160a01b0381168114605d575f5ffd5b9392505050565b60805161116b61008a5f395f81816101180152818161021301526106c6015261116b5ff3fe6080604052600436106100ce575f3560e01c8063758ba64f1161007c5780639e2ed9ad116100575780639e2ed9ad14610279578063a17e041b146102a4578063b77334b2146102c3578063dc2f8744146102f4575f5ffd5b8063758ba64f146101e75780637a5b4f59146101fc5780639a90ba461461025a575f5ffd5b806334a834ce116100ac57806334a834ce1461019057806335a1223a146101b357806344a22c36146101d2575f5ffd5b806302d72c05146100d25780632b7ac3f3146101075780632c5868b514610152575b5f5ffd5b3480156100dd575f5ffd5b506100f16100ec366004610a24565b61031f565b6040516100fe9190610a69565b60405180910390f35b348015610112575f5ffd5b5061013a7f000000000000000000000000000000000000000000000000000000000000000081565b6040516001600160a01b0390911681526020016100fe565b34801561015d575f5ffd5b5061018061016c366004610a24565b60056020525f908152604090205460ff1681565b60405190151581526020016100fe565b34801561019b575f5ffd5b506101a560075481565b6040519081526020016100fe565b3480156101be575f5ffd5b506100f16101cd366004610a24565b6103b6565b3480156101dd575f5ffd5b506101a560065481565b6101fa6101f5366004610b21565b6103ce565b005b348015610207575f5ffd5b506102356006546007547f000000000000000000000000000000000000000000000000000000000000000092565b604080516001600160a01b0390941684526020840192909252908201526060016100fe565b348015610265575f5ffd5b506100f1610274366004610a24565b610581565b348015610284575f5ffd5b506101a5610293366004610a24565b60016020525f908152604090205481565b3480156102af575f5ffd5b506101fa6102be366004610bb7565b610599565b3480156102ce575f5ffd5b506102e26102dd366004610a24565b610822565b6040516100fe96959493929190610c29565b3480156102ff575f5ffd5b506101a561030e366004610a24565b5f6020819052908152604090205481565b60046020525f90815260409020805461033790610c83565b80601f016020809104026020016040519081016040528092919081815260200182805461036390610c83565b80156103ae5780601f10610385576101008083540402835291602001916103ae565b820191905f5260205f20905b81548152906001019060200180831161039157829003601f168201915b505050505081565b60036020525f90815260409020805461033790610c83565b345f0361043d577febca9d975af5e5fa1fdb37ed8ca00362f65a540f0887207d38f8a7242c0c27b260065460016104059190610ccf565b33604051610414929190610ce8565b60405180910390a160405162461bcd60e51b815260040161043490610d33565b60405180910390fd5b806104a1577febca9d975af5e5fa1fdb37ed8ca00362f65a540f0887207d38f8a7242c0c27b260065460016104729190610ccf565b33604051610481929190610d61565b60405180910390a160405162461bcd60e51b815260040161043490610db2565b600680545f9081526001602090815260408083208590559254825260029052206104cb8582610e3a565b506006545f9081526003602052604090206104e68482610e3a565b506006545f9081526004602052604090206105018382610e3a565b506006545f9081526020819052604081203490556007549003610525576006546007555b60068054905f61053483610ef5565b90915550506006546040805191825234602083015281018290527f4bd3612c87b5c4c439463768f70ccc8a6a26983fdd648246f7c3f7efd07025879060600160405180910390a150505050565b60026020525f90815260409020805461033790610c83565b5f8181526005602052604090205460ff1615610600577f5d36ac082da75cb1895398a66dbd9f71ba3e99e24cef6bc3366e7921692318a381336040516105e0929190610f0d565b60405180910390a160405162461bcd60e51b815260040161043490610f55565b5f81815260016020526040902054610663577f5d36ac082da75cb1895398a66dbd9f71ba3e99e24cef6bc3366e7921692318a38133604051610643929190610f88565b60405180910390a160405162461bcd60e51b815260040161043490610fcd565b6040805160018082528183019092525f91602080830190803683375050505f838152600160205260408120548251929350918391906106a4576106a4610ffd565b6020908102919091010152604051633a94343960e21b81526001600160a01b037f0000000000000000000000000000000000000000000000000000000000000000169063ea50d0e4906106ff90879087908690600401611011565b602060405180830381865afa925050508015610738575060408051601f3d908101601f1916820190925261073591810190611089565b60015b61078d577f5d36ac082da75cb1895398a66dbd9f71ba3e99e24cef6bc3366e7921692318a3823360405161076d9291906110a8565b60405180910390a160405162461bcd60e51b8152600401610434906110f9565b505f8281526005602052604090819020805460ff19166001179055517fdf0a51f149bda50bfee1bc536ef1f869302b89ae91d38e0296cfe0fe95dcf77e906107d89084815260200190565b60405180910390a1600754820361081c575b6007545f9081526005602052604090205460ff161561081c5760078054905f61081283610ef5565b91905055506107ea565b50505050565b5f818152600160209081526040808320548383528184205460028452828520600385528386206004865284872060059096529386205481548796606096879687968a969195909491939160ff90911690849061087d90610c83565b80601f01602080910402602001604051908101604052809291908181526020018280546108a990610c83565b80156108f45780601f106108cb576101008083540402835291602001916108f4565b820191905f5260205f20905b8154815290600101906020018083116108d757829003601f168201915b5050505050935082805461090790610c83565b80601f016020809104026020016040519081016040528092919081815260200182805461093390610c83565b801561097e5780601f106109555761010080835404028352916020019161097e565b820191905f5260205f20905b81548152906001019060200180831161096157829003601f168201915b5050505050925081805461099190610c83565b80601f01602080910402602001604051908101604052809291908181526020018280546109bd90610c83565b8015610a085780601f106109df57610100808354040283529160200191610a08565b820191905f5260205f20905b8154815290600101906020018083116109eb57829003601f168201915b5050505050915095509550955095509550955091939550919395565b5f60208284031215610a34575f5ffd5b5035919050565b5f81518084528060208401602086015e5f602082860101526020601f19601f83011685010191505092915050565b602081525f610a7b6020830184610a3b565b9392505050565b634e487b7160e01b5f52604160045260245ffd5b5f82601f830112610aa5575f5ffd5b813567ffffffffffffffff811115610abf57610abf610a82565b604051601f8201601f19908116603f0116810167ffffffffffffffff81118282101715610aee57610aee610a82565b604052818152838201602001851015610b05575f5ffd5b816020850160208301375f918101602001919091529392505050565b5f5f5f5f60808587031215610b34575f5ffd5b843567ffffffffffffffff811115610b4a575f5ffd5b610b5687828801610a96565b945050602085013567ffffffffffffffff811115610b72575f5ffd5b610b7e87828801610a96565b935050604085013567ffffffffffffffff811115610b9a575f5ffd5b610ba687828801610a96565b949793965093946060013593505050565b5f5f5f60408486031215610bc9575f5ffd5b833567ffffffffffffffff811115610bdf575f5ffd5b8401601f81018613610bef575f5ffd5b803567ffffffffffffffff811115610c05575f5ffd5b866020828401011115610c16575f5ffd5b6020918201979096509401359392505050565b86815285602082015260c060408201525f610c4760c0830187610a3b565b8281036060840152610c598187610a3b565b90508281036080840152610c6d8186610a3b565b91505082151560a0830152979650505050505050565b600181811c90821680610c9757607f821691505b602082108103610cb557634e487b7160e01b5f52602260045260245ffd5b50919050565b634e487b7160e01b5f52601160045260245ffd5b80820180821115610ce257610ce2610cbb565b92915050565b8281526001600160a01b0382166020820152606060408201525f610d2b60608301600f81526e109bdd5b9d1e481c995c5d5a5c9959608a1b602082015260400190565b949350505050565b602081525f610ce260208301600f81526e109bdd5b9d1e481c995c5d5a5c9959608a1b602082015260400190565b8281526001600160a01b0382166020820152606060408201525f610d2b60608301601681527f536f6c7574696f6e206861736820726571756972656400000000000000000000602082015260400190565b602081525f610ce260208301601681527f536f6c7574696f6e206861736820726571756972656400000000000000000000602082015260400190565b601f821115610e3557805f5260205f20601f840160051c81016020851015610e135750805b601f840160051c820191505b81811015610e32575f8155600101610e1f565b50505b505050565b815167ffffffffffffffff811115610e5457610e54610a82565b610e6881610e628454610c83565b84610dee565b6020601f821160018114610e9a575f8315610e835750848201515b5f19600385901b1c1916600184901b178455610e32565b5f84815260208120601f198516915b82811015610ec95787850151825560209485019460019092019101610ea9565b5084821015610ee657868401515f19600387901b60f8161c191681555b50505050600190811b01905550565b5f60018201610f0657610f06610cbb565b5060010190565b8281526001600160a01b0382166020820152606060408201525f610d2b606083016014815273145d595cdd08185b1c9958591e481cdbdb1d995960621b602082015260400190565b602081525f610ce2602083016014815273145d595cdd08185b1c9958591e481cdbdb1d995960621b602082015260400190565b8281526001600160a01b0382166020820152606060408201525f610d2b606083016011815270145d595cdd081b9bdd0818dc99585d1959607a1b602082015260400190565b602081525f610ce2602083016011815270145d595cdd081b9bdd0818dc99585d1959607a1b602082015260400190565b634e487b7160e01b5f52603260045260245ffd5b60408152826040820152828460608301375f606084830101525f601f19601f85011682016060810160608483030160208501528085518083526080840191506020870193505f92505b8083101561107d578351825260208201915060208401935060018301925061105a565b50979650505050505050565b5f60208284031215611099575f5ffd5b81518015158114610a7b575f5ffd5b8281526001600160a01b0382166020820152606060408201525f610d2b60608301601981527f50726f6f6620766572696669636174696f6e206661696c656400000000000000602082015260400190565b602081525f610ce260208301601981527f50726f6f6620766572696669636174696f6e206661696c65640000000000000060208201526040019056fea2646970667358221220f1df93a61487e92824a90681e922f6530867412a1638cc9288803a7678a461c564736f6c634300081c0033",
  "linkReferences": {},
  "deployedLinkReferences": {}
}